:020000040800F2
:10000000B0E70020290300081D71000825580008EA
:100010006D6B00087B120008CDB6000800000000E0
:10002000000000000000000000000000690200085D
:10003000791A000800000000C5020008BB90000803
:100040004303000843030008430300084303000878
:1000500043030008430300087B1A00084303000819
:1000600043030008811A0008871A000843030008A8
:100070004303000843030008430300084303000848
:100080004303000843030008430300084303000838
:100090008112000843030008430300088D1A00087A
:1000A0004303000843030008430300084303000818
:1000B0004303000843030008430300084303000808
:1000C00043030008430300084303000843030008F8
:1000D000430300084303000843030008C5950008D4
:1000E00043030008430300084303000843030008D8
:1000F0004303000843030008430300088D1400086D
:1001000043030008430300084303000843030008B7
:1001100043030008430300084303000843030008A7
:1001200043030008E5140008F11400084303000825
:100130004303000843030008430300084303000887
:100140008D120008430300084303000845710008AE
:1001500043030008BD190008C9190008A596000846
:100160004303000843030008430300084303000857
:100170004303000843030008430300080000000095
:10018000430300084303000800F002F800F05CF8A5
:100190000AA090E8000C82448344AAF10107DA45E2
:1001A00001D100F051F8AFF2090EBAE80F0013F0D8
:1001B000010F18BFFB1A43F001031847104F01004D
:1001C000304F01000A444FF0000C10F8013B13F0CF
:1001D000070408BF10F8014B1D1108BF10F8015BA0
:1001E000641E05D010F8016B641E01F8016BF9D193
:1001F00013F0080F1EBF10F8014BAD1C0C1B09D1EA
:100200006D1E58BF01F801CBFAD505E014F8016B5B
:1002100001F8016B6D1EF9D59142D6D370470000ED
:100220000023002400250026103A28BF78C1FBD8FF
:10023000520728BF30C148BF0B6070471FB513F08D
:1002400009FF1FBD10B510BD00F0F7FA1146FFF70A
:10025000F5FF0FF094FD00F015FB03B4FFF7F2FF7C
:1002600003BC00F025FB00002C4B19680868B0E8BF
:10027000F04F80F30988BFF36F8F4FF0000080F3D9
:10028000118870470000000008480068006880F38B
:1002900008884FF0000080F3148862B661B6BFF39F
:1002A0004F8FBFF36F8F00DF00BF00BF08ED00E08E
:1002B000DFF80C00016841F470010160704700BF75
:1002C00088ED00E0EFF30980BFF36F8F134B1A68DE
:1002D0001EF0100F08BF20ED108A20E9F04F1060CB
:1002E00009B44FF0500080F31188BFF34F8FBFF374
:1002F0006F8F11F0EDFD4FF0000080F3118809BC05
:1003000019680868B0E8F04F1EF0100F08BFB0EC95
:10031000108A80F30988BFF36F8F7047B000002008
:10032000EFF30580704700000948804709480047FF
:10033000FEE7FEE7FEE7FEE7FEE7FEE7FEE7FEE795
:10034000FEE7FEE704480549054A064B70470000F2
:100350006991000889010008B0A70020B0E70020DB
:10036000B0C70020B0C700209FED1A1AF5EE000AB2
:1003700040EE010ABDEEE00AF5EEC00A10EE100AEA
:10038000F1EE10FA38BF401E00EE100A1349F7EEE6
:10039000001AB8EEC00A30EEC00ADFED0F0A20EEF8
:1003A000200AFCEEC00A10EE900AC0F3080000EE2E
:1003B000900A01EB8000F8EE600A90ED011A70EEF1
:1003C000600A90ED000A71EEE01A21EE800A00EE5C
:1003D000810A704783F9223E00000044204801084A
:1003E000DFED190AB5EEC00A60EE200ABDEEE01A94
:1003F00011EE100AF1EE10FA38BF401E00EE100A9E
:100400001349F7EE001AB8EEC00A30EEC00ADFED6D
:100410000F0A60EE200ABCEEE00A10EE100AC0F3EC
:10042000080000EE100A01EB8000B8EE400A90EDE3
:10043000011A70EEC00A90ED000A71EEE01A21EE8A
:10044000800A00EE810A704783F9223E00000044D2
:100450002048010810B49FED310A5FEA910C1ED0CC
:10046000BCF1004F3DD2BCF1000FC4BF034664464F
:1004700015DD00BFD3ED000A00EEA00AD3ED010A9E
:1004800000EEA00AD3ED020A00EEA00AD3ED030AA3
:100490001033641E00EEA00AECD100EB0C1011F03A
:1004A00003011AD0B1F1004F30D2002915DD001F31
:1004B00011F0010F04D0D0ED010A001D00EEA00ADA
:1004C00049080AD0D0ED010A00EEA00AD0ED020AD8
:1004D0000830491E00EEA00AF4D182ED000A10BCDB
:1004E0007047D0ED000A00EEA00AD0ED010A00EE40
:1004F000A00AD0ED020A00EEA00AD0ED030A1030E7
:10050000BCF1010C00EEA00AEBD1C8E7F0EC010A47
:10051000491E00EEA00AF9D1DFE70000000000004C
:1005200053EA020C00F069802DE9F04B4FF0000611
:10053000002B1FBFB3FA83F503FA05F424FA05F67E
:100540005E4012BF1643B2FA82F502FA05F4C5F115
:1005500020051EBF22FA05FC44EA0C04203556EAA9
:10056000044C4FEA144418BF641C4FF000084FF0CD
:100570000009904271EB030C39D3002919BFB1FA7D
:1005800081F701FA07F6B0FA80F700FA07F6C7F12B
:1005900020071EBF20FA07FC46EA0C062037B6FBF0
:1005A000F4FCA7EB0507103F07F01F0BCBF120066B
:1005B0000CFA0BFB2CFA06F644BFB3460026202F9C
:1005C000A4BF5E464FF0000B5BEA060C08BF4FF07D
:1005D000010B19EB0B09ABFB027C48EB0608C01BB7
:1005E00006FB02CC0BFB03CC71EB0C01C1E70B4605
:1005F000024641464846BDE8F08B13B54FF0000077
:100600004FF00001AFF30080BDE81C40704710B50B
:10061000431C02E010F8011B71B18107FAD14FF0C1
:10062000013202C88C1A8C4314EAC211F9D0C01AE4
:100630000A0603D0C01E10BDC01A10BD0A0401D0A6
:10064000801E10BD0902FCD0401E10BD032A40F2DE
:10065000308010F0030C00F0158011F8013BBCF164
:10066000020F624498BF11F801CB00F8013B38BF7C
:1006700011F8013BA2F1040298BF00F801CB38BF8A
:1006800000F8013B11F0030300F02580083AC0F0A8
:10069000088051F8043B083A51F804CBA0E8081050
:1006A000F5E7121D5CBF51F8043B40F8043BAFF383
:1006B0000080D20724BF11F8013B11F801CB48BFDD
:1006C00011F8012B24BF00F8013B00F801CB48BF13
:1006D00000F8012B704710B5203AC0F00B80B1E84C
:1006E0001850203AA0E81850B1E81850A0E8185067
:1006F000BFF4F5AF5FEA027C24BFB1E81850A0E870
:10070000185044BF18C918C0BDE810405FEA827C89
:1007100024BF51F8043B40F8043B08BF7047D207A0
:1007200028BF31F8023B48BF11F8012B28BF20F841
:10073000023B48BF00F8012B704702F0FF0343EA79
:10074000032242EA024200F002B84FF000020429FC
:10075000C0F0128010F0030C00F01B80CCF1040CF0
:10076000BCF1020F18BF00F8012BA8BF20F8022B24
:10077000A1EB0C0100F00DB85FEAC17C24BF00F8CA
:10078000012B00F8012B48BF00F8012B70474FF0F8
:10079000000200B5134694469646203922BFA0E8D1
:1007A0000C50A0E80C50B1F12001BFF4F7AF0907DD
:1007B00028BFA0E80C5048BF0CC05DF804EB8900CE
:1007C00028BF40F8042B08BF704748BF20F8022B11
:1007D00011F0804F18BF00F8012B70477047704729
:1007E000704710B500F00CF8006810BD10B5044655
:1007F00000F006F8046010BD0048704750A70020C4
:100800000048704750A700201FB584B000200A9C04
:1008100006AB04AA02A90094AFF3008018B1DDE989
:10082000020108B010BD0348204000F039F8002054
:100830000146F6E70000207C70477546FFF7DCFFB5
:10084000AE4605006946534620F00700854618B0BD
:1008500020B5FFF777FDBDE820404FF000064FF0D0
:1008600000074FF000084FF0000B21F00701AC46E5
:10087000ACE8C009ACE8C009ACE8C009ACE8C00904
:100880008D46704710B50446AFF300802046BDE8A2
:100890001040FFF7E2BC002801D000F009B8704713
:1008A00010B500F025F8BDE81040FFF7F4BF0000D8
:1008B00001491820ABBEFEE72600020070B50546D0
:1008C0000C460A2000E06D1C00F068F835B128786D
:1008D0000028F8D102E0641C00F060F814B1207820
:1008E0000028F8D1BDE870400A2000F057B8000099
:1008F00010B5022803D0410103D50DA112E000205C
:1009000010BD010101D50FA10CE0C10001D511A15D
:1009100008E0810001D512A104E0400001D513A137
:1009200000E0002115A0FFF7C9FF012010BD000065
:10093000496E76616C6964204F7065726174696F8D
:100940006E000000446976696465204279205A652A
:10095000726F00004F766572666C6F770000000062
:10096000556E646572666C6F77000000496E65783D
:1009700061637420526573756C7400005349474677
:1009800050453A2041726974686D657469632065E9
:100990007863657074696F6E3A20000008B5694627
:1009A0008DF800000320ABBE08BD00004A494A682C
:1009B00022F440324A604A6843681A434A60016838
:1009C0004A6822F480724A6001684A68036942EA10
:1009D00003224A6001684A6822F040724A60016856
:1009E0004A6883681A434A6001688A6822F4006290
:1009F0008A6001688A68C3681A438A60816A6FF0F6
:100A00007062D14214D001688A6822F070628A60F4
:100A100001688A68836A1A438A6001688A6822F0DA
:100A200040528A6001688A68C36A1A438A6009E092
:100A300001688A6822F070628A6001688A6822F020
:100A400040528A6001688A6822F002028A60016866
:100A50008A68037E42EA43028A6090F8201089B1D6
:100A600001684A6842F400624A6001684A6822F4F8
:100A700060424A6001684B68426A521E43EA423251
:100A80004A6004E001684A6822F400624A60016832
:100A9000CA6A22F47002CA620168CB6A828B521E53
:100AA00043EA0252CA6201688A6822F400728A60CC
:100AB00001688A6890F8303042EA43228A6001680F
:100AC0008A6822F480628A6001688A68406942EA22
:100AD0008020886070470000002301400AF01ABEA1
:100AE0000AF0AEBEFFF740BCF0EE400AF5EEC00AD9
:100AF000F1EE10FA02DDB0EE600A7047B1EE600A66
:100B0000FBE70000002803D09FED020A80ED000AF9
:100B10007047000000000000002803D0B3EE060A72
:100B200080ED000A7047000070B52DED0C8B84B08D
:100B300006460C4615469FED990AF0EE408A9FED59
:100B4000970AB0EE409A9FED950AF0EE40BA9FEDFD
:100B5000930AF0EE409A9FED910AB0EE40AA0EB1D2
:100B600004B11DB904B0BDEC0C8B70BD8C48FFF70F
:100B7000C9FF8C48FFF7D0FF8A48D0ED000A9FEDEF
:100B80008A1A60EE810AB0EE600A00F025F9F0EEF4
:100B9000408A28EEA80AF0EE408A8248D0ED000A8A
:100BA000B0EE001A60EE810A9FED7F1A60EE810AB6
:100BB000B0EE600A00F010F9B0EE409A29EE090A92
:100BC000B0EE409ADFED790AB7EE000A00EEA80A0F
:100BD000DFED770A00EEC90ADFED760A20EE200A83
:100BE000754880ED000A6E4890ED000ADFED730A4B
:100BF00080EE201AB7EE000A31EE000A20EE000A5D
:100C00006D48D0ED000A80EE801A6D4880ED001A24
:100C100094ED000AB5EEC00AF1EE10FA0DD194ED94
:100C2000010AB5EEC00AF1EE10FA06D194ED020AFF
:100C3000B5EEC00AF1EE10FA46D09FED580AB0EEBC
:100C4000408A0020019002900390D4ED000A60EEEB
:100C5000A00A94ED011AD4ED011A41EE210A94ED97
:100C6000021AD4ED021A41EE210AB0EE600A00F039
:100C7000A9F8B0EE408A94ED000A20EE080A8DED46
:100C8000010A94ED010A20EE080A8DED020A94EDA6
:100C9000020A20EE080A8DED030ADDED010AF1EEED
:100CA000600AB0EE600AFFF719FFF0EE409A9DED82
:100CB000031AF0EE410A9DED021AB0EE410AFFF769
:100CC0000FFFB0EE40AA07E09FED340AF0EE409A25
:100CD0009FED320AB0EE40AA95ED000AB5EEC00ACB
:100CE000F1EE10FA0DD195ED010AB5EEC00AF1EE64
:100CF00010FA06D195ED020AB5EEC00AF1EE10FA2F
:100D00003CD0B0EE690A00F067F8B0EE408AB0EE71
:100D1000690AFFF7E7FEB0EE40DAB0EE4A0A00F0EB
:100D20005BF8F0EE40AAB0EE4A0AFFF7DBFEB0EE49
:100D300040BA28EE2A0AD5ED010A20EE200AD5EDA8
:100D4000000A0DEE200A68EE0B0A95ED021A00EE7D
:100D5000810AB0EE40CA95ED010A20EE0B0AD5EDEE
:100D6000020A0AEEE00AF0EE40CAF0EE6C0AB0EEBB
:100D70004C0AFFF7B5FEF0EE40BA03E09FED070A1C
:100D8000F0EE40BAB0EE4A1AF0EE690AB0EE6B0A25
:100D900030460BF079FB00BFE4E6000000000000E5
:100DA0001C0400202004002035FA8E3CC1BFAD3B5E
:100DB0009DF8C5362F7C1C4124040020506CC24A8B
:100DC0002804002010B50BF07DF8B7EE001AC1EE34
:100DD000000AB0EE600A10BDFFF702BB2DE9F0413A
:100DE0002DED028B9AB00546B0EE408A0E461746AE
:100DF000984600201790189019901490159016900E
:100E00004DB146B13FB1B8F1000F04D0B5EEC08A84
:100E1000F1EE10FA05D100201AB0BDEC028BBDE84E
:100E2000F08196ED000A8DED170A96ED010A8DED21
:100E3000180A96ED020A8DED190A97ED000A8DED5C
:100E4000140A97ED010A8DED150A97ED020A8DED52
:100E5000160A17AA14A928460BF04AF9402104A83B
:100E6000FFF795FC00200090019002900390002471
:100E700017A904A810F09CFC00BF30E004A800EB08
:100E8000041090ED000AD5ED000A20EE200A04A817
:100E900000EB0410D0ED010A95ED011A00EE810A75
:100EA00004A800EB0410D0ED020A95ED021A00EE42
:100EB000810A04A800EB0410D0ED030A95ED031A93
:100EC00000EE810A20EE080AF0EE000A80EE201AF9
:100ED000684600EB840080ED001A601CC4B2042C4C
:100EE000CCDB002410E005EB840090ED000A68469E
:100EF00000EB8400D0ED000A30EE200A05EB840000
:100F000080ED000A601CC4B2042CECDB28460FF014
:100F100031FD012080E7000001221021014802F08C
:100F200008B800000000024000221021014802F031
:100F300000B8000000000240704700000122114686
:100F4000014801F0F6BF0000000402400022012128
:100F5000014801F0EEBF00000004024030B54378C4
:100F600004781B021BB2234300EE103A1B4CB8EE70
:100F7000C00AD4ED000A20EE200A81ED000AC378F1
:100F800085781B021BB22B4300EE103AF8EEC00A24
:100F900094ED000A60EE800AC1ED010A43790479FC
:100FA0001B021BB2234300EE903AF8EEE00A20EE5B
:100FB000800A81ED020A017AC3790904807941EA45
:100FC0000321014300EE101ADFED050AB8EE400AD6
:100FD00020EE200A82ED000A30BD0000EC03002064
:100FE00000401C4270470EF02FBF0CF0B3BE000053
:100FF00010B542780378120212B21A4300EE102A9A
:10100000124BB8EEC00AD3ED010A20EE200A81EDA2
:10101000000AC2788478120212B2224300EE102A2B
:10102000F8EEC00A93ED010A60EE800AC1ED010AF4
:1010300042790079120212B2024300EE902AF8EED1
:10104000E00A20EE800A81ED020A10BDEC030020C8
:1010500010B5FFF771FFFFF7C5FF0BF085FB08B177
:10106000802402E00BF0F2FA04460BF043FD10B1CD
:1010700044F0400010BD0BF0CFFC204310BD000039
:101080002DE9FC4104460D461646002000900190D3
:10109000FFF74AFF922000F0BFF8062269461220AF
:1010A00000F09CF8FFF738FF9DF801009DF8001054
:1010B000000200B2084300EE100A474FB8EEC00A23
:1010C000D7ED000A20EE200A85ED000A9DF8030006
:1010D0009DF80210000200B2084300EE100AF8EE7C
:1010E000C00A97ED000A60EE800AC5ED010A9DF87E
:1010F00005009DF80410000200B2084300EE900ABB
:10110000F8EEE00A20EE800A85ED020AFFF71EFFE6
:1011100008226946002000F061F8FFF70FFF9DF8F4
:1011200000000F2830D19DF803009DF80210000246
:1011300000B2084300EE100AD7ED010AB8EEC00A6B
:1011400020EE200A84ED000A9DF805009DF80410A9
:10115000000200B2084300EE100AF8EEC00A97ED54
:10116000010A60EE800AC4ED010A9DF807009DF8AF
:101170000610000200B2084300EE900AF8EEE00A02
:1011800020EE800A84ED020AFFF7CEFEA22000F0D6
:1011900043F802226946222000F020F8FFF7BCFE47
:1011A0009DF800009DF80110C00040EA5110B0F514
:1011B000806F02DBA0F5006000B200EE100AB4EE12
:1011C000001AF8EEC00AB3EE070A00EE810A86EDB7
:1011D000000ABDE8FC810000EC03002070B50D465C
:1011E000144640F0800000F017F806E0552000F0AB
:1011F00013F805F8010B641EE4B2002CF6D170BDA3
:1012000010B50C4640F0800000F006F8552000F0C4
:1012100003F8207010BD000001B582B04FF47A7061
:101220000090012301AA02A9024803F0EDFC9DF8F9
:1012300004000EBD400D002002784078D20042EA42
:101240005010B0F5806F02DBA0F5006000B200EE38
:10125000100AB4EE001AF8EEC00AB3EE070A00EE68
:10126000810A81ED000A704710B50C46FFF7D4FFE4
:101270002046BDE81040FFF7CFBFFEE70BF0C6BC2D
:10128000014801F02DB80000640B0020014801F076
:1012900027B800008C0B002038B50E4C4FF40075B9
:1012A00025600025A560E560082525610A4C050A32
:1012B00025706070080AA070E170100A20716271D8
:1012C000180AA071E3716B4622460249034800F0F8
:1012D00081FE38BDF0920020360200208C0B0020E9
:1012E00038B50E4C4FF4007525600025A560E5600B
:1012F000082525610A4C050A25706070080AA0704F
:10130000E170100A20716271180AA071E3716B46D6
:1013100022460249034800F05DFE38BDD892002005
:101320002E020020640B002038B50E4C40F2FF1551
:1013300025600025A560E560082525610A4C050AA1
:1013400025706070080AA070E170100A2071627147
:10135000180AA071E3716B4622460249034800F067
:1013600039FE38BDD89200202E0200208C0B0020C0
:1013700038B50E4C40F2FF1525600025A560E560EC
:10138000082525610A4C050AA570E070080A20703E
:101390006170100A20716271180AA071E3716B46C6
:1013A00022460249034800F015FE38BDC0920020D5
:1013B000260200208C0B002038B50D4A40F2FF13A6
:1013C000136000239360D36008241461094A040A5F
:1013D00014705070080A9070D1701371537193712A
:1013E000D3716B460249044800F0F4FD38BD00009B
:1013F000C092002026020020640B002004284FF039
:10140000000070470020704710B5002204490548CD
:1014100008F0B6FB0449034808F0A4FB002010BD07
:10142000D4260020AC120020D41E002010B50446A3
:101430002278A52A04D10A6821460648FFF706F952
:101440002146054808F08EFB034808F05FFB0020AA
:1014500010BD0000B41E0020AC1200200020704718
:1014600010B50A460849D1F8BC12D1F81412002967
:1014700001D0012010BD0146034808F081FBBDE802
:101480001040014808F012BCAC12002010B5124AFE
:10149000506800011FD5114B114C4FF00061586B83
:1014A0000068A04203D90E484C3801600EE00A4C97
:1014B000B834A04203D90A485038016006E0064C0F
:1014C0005834A04201D9D16000E0916018680168E9
:1014D00041F40071016010BD00600240080C002062
:1014E00058640240014801F079BA0000EC11002074
:1014F0002DE9F05FFA48FB4AFA4DC06CFA4EF94FFD
:101500000068DFF8E4C3DFF8DC83DFF8DC93DFF8A2
:10151000D4A3DFF8D4B3DFF8CCE3F34C483D603616
:101520001837D1140CF1180CA8F1300809F178091A
:101530000AF1300A0BF1300BAEF1180E90423ED991
:10154000E84A543A1368A04201D1202235E0A8426B
:1015500001D1202231E0B04201D120222DE0B84259
:1015600001D1202229E0604501D10A4625E040450D
:1015700001D10A4621E0484501D10A461DE0504507
:1015800001D10A4619E0584502D14FF4001214E087
:10159000704502D14FF400120FE0D34A90329042CE
:1015A00002D14FF4001208E0CE4A4832904202D1F4
:1015B0004FF4001201E04FF000621340C3E0CA4A4A
:1015C000A83290423ED9C74A583A1368A04201D186
:1015D000202235E0A84201D1202231E0B04201D1E1
:1015E00020222DE0B84201D1202229E0604501D11E
:1015F0000A4625E0404501D10A4621E0484501D18F
:101600000A461DE0504501D10A4619E0584502D16D
:101610004FF4001214E0704502D14FF400120FE0B5
:10162000B14A9032904202D14FF4001208E0AD4A24
:101630004832904202D14FF4001201E04FF00062B4
:10164000134080E0A84A483290423ED9A64A103A58
:101650005368A04201D1202235E0A84201D12022C6
:1016600031E0B04201D120222DE0B84201D1202248
:1016700029E0604501D10A4625E0404501D10A46EE
:1016800021E0484501D10A461DE0504501D10A46F6
:1016900019E0584502D14FF4001214E0704502D110
:1016A0004FF400120FE0904A9032904202D14FF472
:1016B000001208E08B4A4832904202D14FF40012E7
:1016C00001E04FF0006213403DE0874A103A136892
:1016D000A04201D1202235E0A84201D1202231E0F0
:1016E000B04201D120222DE0B84201D1202229E0D0
:1016F000604501D10A4625E0404501D10A4621E076
:10170000484501D10A461DE0504501D10A4619E07D
:10171000584502D14FF4001214E0704502D14FF445
:1017200000120FE0704A9032904202D14FF4001242
:1017300008E06C4A4832904202D14FF4001201E0B6
:101740004FF000621340002B72D0664A904235D9A8
:10175000A04201D120212DE0A84201D1202129E081
:10176000B04201D1202125E0B84201D1202121E061
:1017700060451FD040451DD048451BD0504519D06D
:10178000584502D14FF4001114E0704502D14FF4D6
:1017900000110FE054499031884202D14FF40011FA
:1017A00008E050494831884202D14FF4001101E06D
:1017B0004FF000614B484C380160ADE04A4AA83216
:1017C000904236D9A04201D120212DE0A84201D17A
:1017D000202129E0B04201D1202125E0B84201D1E9
:1017E000202121E060451FD040451DD048451BD039
:1017F000504519D0584502D14FF4001114E07045FE
:1018000002D14FF400110FE037499031884202D1E4
:101810004FF4001108E033494831884202D14FF4B7
:10182000001101E04FF000612E485038016073E074
:10183000B6E02D4A4832904235D9A04201D120214C
:101840002DE0A84201D1202129E0B04201D1202180
:1018500025E0B84201D1202121E060451FD040455C
:101860001DD048451BD0504519D0584502D14FF4E2
:10187000001114E0704502D14FF400110FE01A4935
:101880009031884202D14FF4001108E015494831E7
:10189000884202D14FF4001101E04FF0006112487C
:1018A0001038C16038E0A04201D1202131E0A842C7
:1018B00001D120212DE0B04201D1202129E0B84200
:1018C00001D1202125E0604523D0404521D0484565
:1018D0001FD050451DD0584508D14FF4001118E0D5
:1018E000400D00205864024010600240704502D153
:1018F0004FF400110DE02B49884202D14FF4001142
:1019000007E02949884202D14FF4001101E04FF06D
:1019100000612448A0388160244C207880070CD5D1
:10192000207820F002002070207840F00400207021
:10193000012211461E4801F0FCFA60781D4D800717
:101940000CD5607820F002006070607840F00400F0
:10195000607001221021284601F0EBFAA078800780
:101960000CD5A07820F00200A070A07840F0040010
:10197000A07001221021284601F0DBFA0DF07EFF55
:10198000207840070CD5207820F0040020702078C3
:1019900040F0080020700848016841F00101016032
:1019A000BDE8F09FA0600240A0640240B4020020A5
:1019B0000004024000000240103C0140014801F0D8
:1019C0000DB800004C120020014801F007B80000DB
:1019D0002C1100200168CAB2103A1823B2FBF3F2AE
:1019E000064B9B5CC3656FF30901032A02D9091DED
:1019F000816500E08165806D70470000104401083A
:101A000010B5014600208A6A8B694FF0C074002B24
:101A10000ED0B3F5005F1AD062B3012A2AD0022A91
:101A200028D0032A03D1C96AC90100D5012010BDFD
:101A30001AB1012A06D0022AF9D1C96AC901F6D51C
:101A4000012010BDC96AA142FBD1012010BD52B1D5
:101A5000012A0AD0022A06D0032AF7D1C96AA14274
:101A6000F4D1012010BD012010BDC96AC901FBD508
:101A7000012010BD012010BD7047012001F05EB9AA
:101A8000082001F05BB9102001F058B9202001F0C6
:101A900055B970470169B1F9021000EE101AB8EE9D
:101AA000C00A80ED020A816EB1F9021000EE101A30
:101AB000B8EEC00A80ED180AD0F8C010B1F90210D3
:101AC00000EE101AB8EEC00A80ED2E0AD0F81811F8
:101AD000B1F9021000EE101AB8EEC00A80ED440A07
:101AE0009FED060A80ED030A80ED450A9FED040A8A
:101AF00080ED2F0A80ED190A704700000080D44560
:101B00000080D4C510B5044604F11400D4ED030AD6
:101B100094ED020A05F000FC94ED0D0ABDEEC00A3A
:101B200010EE100AA080D4ED190A94ED180A04F101
:101B30006C0005F0F1FB94ED230ABDEEC00A10EE37
:101B4000100AA4F85C00D4ED2F0A94ED2E0A04F1DB
:101B5000C40005F0E1FB94ED390ABDEEC00A10EEB9
:101B6000100AA4F8B400D4ED450A94ED440A04F533
:101B70008E7005F0D1FB94ED4F0ABDEEC00A10EE59
:101B8000100AA4F80C0110BD10B50B480168001D27
:101B90000468001D0068084400280BD0082207498B
:101BA00004F0E0F9054920460422BDE81040103158
:101BB00004F0D8B910BD0000107AFF1F7200002099
:101BC00078B50024009490F83C20012A19D0012215
:101BD00080F83C200A680725092A14D90368DE68C2
:101BE0000A3A02EB42029540AE43DE600A788B6807
:101BF0000A3A02EB420293400268D5682B43D36055
:101C000011E0022078BD03681E6902EB4202954094
:101C1000AE431E610A788B6802EB42029340026871
:101C200015692B4313614A681F25072A13D20368DD
:101C30005E6B521E02EB82029540AE435E630A88E1
:101C400093B20A79521E02EB820293400268556BEE
:101C50002B43536328E00D2A13D203681E6BD21F57
:101C600002EB82029540AE431E630A8893B20A7962
:101C7000D21F02EB820293400268156B2B43136361
:101C800012E00368DE6A0D3A02EB82029540AE4331
:101C9000DE620A8893B20A790D3A02EB820293401F
:101CA0000268D56A2B43D362174A184B05689D42D8
:101CB00006D10D68122D03D1556845F48005556095
:101CC00005689D421BD10B68102B01D0112B16D13A
:101CD000536843F400035360096810290FD10C497D
:101CE0000C4A0968B1FBF2F101EB81014900009156
:101CF00002E00099491E009100990029F9D180F86D
:101D00003C40002078BD000000230140002001403D
:101D1000AC00002040420F000068C06C704770B5F6
:101D200004460026002C03D0206C002510B107E0EB
:101D3000012070BD204600F01DF8656484F83C5019
:101D4000206CC00610D4206C20F4885040F00200B3
:101D500020642046FEF72AFE6564206C20F0020015
:101D600040F00100206400E0012684F83C50304639
:101D700070BD000010B586B00446142101A8FEF71E
:101D800006FD174B206800221649984209D10868C1
:101D900040F480700860086800F48070009006B01D
:101DA00010BD114B9842FAD1086840F48060086079
:101DB000086800F4806000900A481438016841F017
:101DC00020010160006800F02000009018150190CB
:101DD00003200290039201A9044800F0BBFFDEE754
:101DE000002001404438024000220140001402401B
:101DF0002DE9F04104460D46206881684FF0000748
:101E000049050BD58068C00508D5206C40F020003E
:101E1000206484F83C700120BDE8F08101F090F866
:101E2000064613E0681C11D025B101F089F8801B2B
:101E3000A8420BD920680068800707D4206C40F0C6
:101E40000400206484F83C700320E5E72068006803
:101E50008007E7D521686FF012000860206C40F41D
:101E6000007020642068816811F0405F13D1217EEA
:101E700089B9C16A11F4700F02D0806840050AD494
:101E8000206C20F480702064206CC00403D4206C8B
:101E900040F0010020640020BEE7000018B50022D9
:101EA000009290F83C10012907D0012180F83C10E5
:101EB00001688B68DB0702D014E0022018BD8B6834
:101EC00043F001038B603449344B0968B1FBF3F1F3
:101ED00001EB4101009102E00099491E0091009937
:101EE0000029F9D101688B68DB074BD0036C40F205
:101EF0000164A34343F4807303644B685B0505D519
:101F0000036C23F4005343F480530364036CDB0439
:101F100004D5436C23F00603436400E0426480F878
:101F20003C201F4A6FF022030B605168CA061D490E
:101F300007D0006888422DD1816811F0405F1CD025
:101F400028E0006888420FD0174A904203D1D1F8A8
:101F50000423D20608D0154A90421BD1D1F80413AD
:101F600001F01F01102915D2816811F0405F11D1D5
:101F7000816841F0804181600CE0816841F08041DE
:101F8000816007E0016C41F010010164416C41F097
:101F900001014164002018BDAC00002040420F0048
:101FA00000230140002001400021014000220140A7
:101FB00090F82020012A07D0022A05D0416A41F476
:101FC0008021416201207047006842690A434261F2
:101FD00000207047F0B590F820500468A468012DE7
:101FE00007D0022D05D0416A41F4802141620120D1
:101FF000F0BD04F0806504F00066354301D1E500D2
:102000005BD5C4F30164022C05D9416A41F4000197
:1020100041620120F0BD0125A5401D608B684FF491
:10202000C0759BB1CE6805EB041733434E6843EA95
:10203000C6030668F3514FF4C273076803EB041339
:102040000E69FE50097D012909D00DE00E88CB688C
:1020500005EB041743EA46530668F351EBE70168C2
:10206000CE5846F48076CE501179D379567941EA2C
:10207000036193791B0443EA062319434FF4C676A0
:10208000036806EB041699511178D37841EA03618D
:10209000937852781B0443EA022211434FF4C4732D
:1020A000026803EB0413D150006805EB0411425899
:1020B00042F0010242500020F0BD416A41F400119B
:1020C00041620120F0BD000010B590F82020012AE7
:1020D00007D0022A05D0416A41F4802141620120E3
:1020E00010BD3C4800F50070026842F00102026039
:1020F000026822F47C52026002684B6A42EA0322C0
:1021000002600A7D02F01F0301229A40C3699343D3
:10211000C361A0F50070CB69B3B9D0F80C3293431A
:10212000C0F80C328C894B6864F31F434C6900EB98
:10213000C404C4F840320C890B6864F31F434C6933
:1021400000EBC404C4F84432CB69012B16D1D0F89B
:102150000C321343C0F80C320C884B6864F31F43F5
:102160004C6900EBC404C4F840320C89CB6864F3BA
:102170001F434C6900EBC404C4F844328B697BB143
:10218000D0F804321343C0F804320B6973B1D0F8AD
:1021900014321343C0F81432096A01290CD010E03C
:1021A000D0F804329343C0F80432EEE7D0F814328A
:1021B0009343C0F81432EFE7D0F81C121143C0F873
:1021C0001C12D0F8001221F00101C0F8001200200A
:1021D00010BD000000640040704730B590F820400A
:1021E000012C07D0022C05D0416A41F480214162C4
:1021F000012030BD21B104682469A4075FD003E049
:102200000468E468A40754D04FF4D874056804EB5C
:1022100001142D5905F004059560F5B305682D5995
:10222000ED08556005682C5904F00204D4604FF4A1
:10223000DA74056804EB01142D5905F00F051561DA
:1022400005682D59C5F30725956105682C59240C9F
:1022500054614FF4DC72046802EB0112A4581C7044
:102260000468A458240A5C700468A458240C9C7068
:102270000468A258120EDA704FF4DE72046802EBA2
:102280000112A4581C710468A458240A5C710468E3
:10229000A458240C9C71046800E016E0A258120EA9
:1022A000DA71B9B10068016941F0200101610020D3
:1022B00030BD416A41F400114162012030BD416AE4
:1022C00041F400114162012030BD05682D596D0DAA
:1022D0001560A7E70068C16841F02001C160E6E72A
:1022E0002DE9F05F0546002428684669D0F804907F
:1022F0008768D0F80CA0D0F810B0D0F81880F1079B
:1023000048D0F90714D001218160B80703D52846C9
:1023100000F038FB0CE0780702D54FF4006407E0CA
:10232000380702D54FF4805402E0284600F029FB1C
:10233000F80516D529684FF480708860B80503D574
:10234000284600F021FB0CE0780502D544F4005447
:1023500007E0380502D544F4804402E0284600F046
:1023600012FBF80316D529684FF480308860B80353
:1023700003D5284600F00AFB0CE0780302D544F4AC
:10238000004407E0380302D544F4803402E02846D4
:1023900000F0FBFA300707D55FEACA6004D544F4C1
:1023A000007429681020C86070074FF0080707D52F
:1023B0005FEA0A7004D52868C760284600F0B8F9BB
:1023C000B00706D52868C068800702D0284600F00C
:1023D000B1F9700607D55FEACB6004D544F4806498
:1023E000296810200861B00607D55FEA0B7004D594
:1023F00028680761284600F095FAF00606D5286897
:102400000069800702D0284600F08DFAB00308D595
:102410005FEAC96005D5296810204860284600F0A9
:1024200083FAF00307D55FEA097004D5286847608E
:10243000284600F0ACFA300446D55FEA497040D532
:10244000F00504D55FEAC87001D044F00104B0057E
:1024500004D55FEA887001D544F00204700504D504
:102460005FEA487001D544F00404300529D518F01E
:10247000700F26D008F07000402815D006DC102818
:1024800009D020280AD0302816D10AE050280ED0D2
:10249000602811D10EE044F008040DE044F010046F
:1024A0000AE044F0200407E044F0400404E044F073
:1024B000800401E044F480742868816921F070018F
:1024C0008161296804204860002C05D0686A204397
:1024D00068622846FFF780FEBDE8F09F70B50446AD
:1024E000002C03D094F8200010B104E0012070BD4E
:1024F000204600F09DF82068016841F0010101606C
:1025000000F01EFD054605260CE000F019FD401BFD
:102510000A2807D9606A40F40030606284F82060BD
:10252000012070BD20684068C007EED020680168B7
:1025300021F00201016000F003FD05460CE000F00F
:10254000FFFC401B0A2807D9606A40F40030606233
:1025500084F82060012070BD206840688007EED4B8
:10256000207E01283FD02068016821F080010160B1
:10257000607E01283DD02068016821F040010160A3
:10258000A07E01283BD02068016821F02001016075
:10259000E07E012839D02068016841F01001016017
:1025A000207F012837D02068016821F008010160F0
:1025B000607F012835D02068016821F004010160A6
:1025C000D4E902010843D4E90412114308436168C5
:1025D000491E08432168C86100206062012084F818
:1025E0002000002070BD2068016841F0800101607A
:1025F000BEE72068016841F040010160C0E7206843
:10260000016841F020010160C2E72068016821F003
:1026100010010160C4E72068016841F00801016011
:10262000C6E72068016841F004010160C8E70000C6
:102630002DE9F04186B00446142101A8FEF7A7F861
:10264000364B374ADFF8D08018682168344C0326AF
:102650000227401C103200254FF0090C414527D1BC
:102660001860012807D1106840F0007010601068F1
:1026700000F000700090206840F0080020602068A2
:1026800000F0080000900196029703950496CDF89B
:1026900014C001A9234800F05DFB0022062114208C
:1026A00001F038F8142001F027F806B0BDE8F081F9
:1026B000DFF874804145F8D1116841F08061116004
:1026C000116801F0806100911860012807D110683D
:1026D00040F000701060106800F0007000902068FA
:1026E00040F002002060206800F0020000906020AE
:1026F0000190029703950496CDF814C001A90B48E8
:1027000000F028FB00220621402001F003F84020C1
:1027100000F0F2FFC9E70000006400403000002034
:1027200030380240000C02400068004000040240C3
:102730007047000030B589B004466B4602AA0021FC
:102740002046FFF74AFD734884422ED10298A0F23A
:102750000120052827D8C1B26F4801706F4B01EBEB
:10276000810203EB420033F8124004819DF80140DE
:102770009DF8005044EA052423F812409DF80320F8
:102780009DF8023042EA032242809DF805209DF820
:10279000043042EA032282809DF806208271491C9F
:1027A000C8B20BF0F3FA09B030BD5D488442FAD1EB
:1027B00002995A48A1F2012146300629F3D2DFE8F6
:1027C00001F0031E7139558C018801819DF80110BB
:1027D0009DF8002041EA022101809DF803109DF838
:1027E000022041EA022141809DF805109DF8042055
:1027F00041EA022181809DF806108171D3E7418969
:1028000041829DF801109DF8002041EA022141819A
:102810009DF803109DF8022041EA022181819DF874
:1028200005109DF8042041EA0221C1819DF806109F
:102830000174B8E7C18BC1849DF801109DF8002098
:1028400041EA0221C1839DF803109DF8022041EA6C
:10285000022101849DF805109DF8042041EA02211F
:1028600041849DF8061080F824109CE7018D0186B4
:102870009DF801109DF8002041EA022101859DF894
:1028800003109DF8022041EA022141859DF80510C0
:102890009DF8042041EA022181859DF8061080F808
:1028A0002E1080E7818A81839DF801109DF8002019
:1028B00041EA022181829DF803109DF8022041EA3D
:1028C0000221C1829DF805109DF8042041EA0221F1
:1028D00001839DF80610817665E7418E41879DF85A
:1028E00001109DF8002041EA022141869DF8031065
:1028F0009DF8022041EA022181869DF805109DF88D
:10290000042041EA0221C1869DF8061080F83810A3
:1029100049E70000640B0020240200203C920020C4
:102920008C0B002070477047704770B5044694F8D0
:102930002000012805D0606A40F400206062012078
:1029400070BD022084F820002068016821F0010198
:10295000016000F0F5FA05460DE000F0F1FA401BC9
:102960000A2808D9606A40F400306062052084F8C3
:102970002000012070BD20684068C007EDD1606272
:1029800070BD704770477047704770477047704719
:1029900010B50446002C02D0607910B106E0012089
:1029A00010BD00202071204600F004F80120607165
:1029B000002010BD08B500680649884208D10648C5
:1029C000016841F480510160006800F4805000907B
:1029D00008BD000000300240303802402DE9F843C5
:1029E00004464FF00009CDF800906F484FF416519F
:1029F0000068B0FBF1F7A56D2E6894F85C00082222
:102A000002FA00F1314210D02068016849070CD564
:102A1000016821F00401016094F85C0002FA00F101
:102A2000A960606D40F00100606594F85C104FF0A3
:102A3000010808FA01F0304208D021684969090606
:102A400004D5A860606D40F00200606594F85C10E9
:102A500004208840304208D021680968890704D5DD
:102A6000A860606D40F00400606594F85C10102070
:102A70008840304220D02168096809071CD5A86029
:102A80002068016849030CD50068000304D4216C58
:102A900091B1204688470FE0A16C69B12046884774
:102AA0000AE00168C90503D4016821F0080101604A
:102AB000216C09B12046884794F85C10202088409A
:102AC00030424CD021680968C90648D5A86094F8FE
:102AD000350005280BD020680168490330D500680F
:102AE000000328D4616C51B32046884737E0206842
:102AF000016821F0160101602068416921F0800120
:102B00004161206C08B9A06C20B12068016821F0F7
:102B10000801016094F85C103F208840A86084F8A8
:102B2000358084F83490216D00293BD001B02046D7
:102B3000BDE8F0430847E16B09B1204688470EE045
:102B40000168C90507D4016821F01001016084F80B
:102B5000358084F83490E16B09B120468847606D78
:102B600000281FD0606DC00714D0052084F8350000
:102B70002068016821F0010101600098401C00906C
:102B8000B84203D820680068C007F6D184F83580C1
:102B900084F83490E16C002904D001B02046BDE8EF
:102BA000F0430847BDE8F883AC0000202DE9F04170
:102BB000044600F0C5F905465CB1022084F83500F2
:102BC000002684F834602068016821F0010101606A
:102BD0000DE00120BDE8F08100F0B2F9401B0528AE
:102BE00005D920206065032084F83500F2E72068CD
:102BF0000068C007F0D121680A6820480240D4E983
:102C000001031843D4E903352B4318436369184380
:102C1000A3691843E3691843236A18431043626A9F
:102C2000042A03D1D4E90B231A4310430860206817
:102C3000406920F00700656A2946054301270429F9
:102C40000DD1A06A0543E06A48B12046FEF7D8FEE0
:102C500028B14020606584F835700120BAE720680B
:102C600045612046FEF7B6FE94F85C203F21914076
:102C70008160666584F835700020ABE73F8010F016
:102C800070B5044600F05CF90546601C02D00448AB
:102C90000078044400F054F9401BA042FAD370BD00
:102CA000A000002010B5234C10281AD020282AD0CC
:102CB000082836D0012813D10FF01AFD01280FD0B3
:102CC00004F10C0120690FF01DF8E068002807D01E
:102CD00019494FF080500860BFF34F8FBFF36F8FDB
:102CE00010BD09200BF052F8607840F001006070D0
:102CF000A07840F00100A07020790028F0D0BDE855
:102D000010400CF0BBBD08200BF040F8207840F0DC
:102D10000100207020790028E2D0BDE810400CF0BE
:102D2000ADBD0A200BF032F8E07840F00100E07011
:102D300010BD0000B402002004ED00E010B504490D
:102D40000A68024202D00860FFF7ACFF10BD000025
:102D5000143C01402DE9F84F0022DFF89C914FF020
:102D6000010803274FF00F0C09F1040AA9F1040B25
:102D700008FA02F50B682B40AB426ED10C7904F0D7
:102D80000304012C01D0022C15D18668540007FAE7
:102D900004FE26EA0E06D1F80CE00EFA04FE4EEA16
:102DA000060EC0F808E04468AC430D79C5F3001581
:102DB0009540254345600C79E443A40708D0C568D5
:102DC000540007FA04F6B5438E68A6402E43C66049
:102DD0000C7904F00304022C11D1D40800EB840612
:102DE000356A5407E40E0CFA04FE25EA0E05D1F804
:102DF00010E00EFA04FE4EEA050EC6F820E0056863
:102E0000540007FA04F6B5430E7906F00306A6400F
:102E10002E4306604C6814F4403F67D0374C256859
:102E200045F480452560246804F480440094344CC3
:102E300022F003052E19D6F8085894074FEA147E9D
:102E40000CFA0EF4A5432F4CA04201D1002424E03B
:102E50002D4CA04202D101241FE047E02B4CA042A0
:102E600001D1022419E02A4CA04201D1032414E02C
:102E7000284CA04201D104240FE0274CA04201D1EC
:102E800005240AE0254CA04201D1062405E0244C8B
:102E9000A04201D1072400E0082404FA0EF42C43D8
:102EA000C6F80848D9F800409C434D68ED0200D5AB
:102EB0001C43C9F80040DAF800409C434D68AD025D
:102EC00000D51C43CAF80040DBF800409C434D6825
:102ED000AD0300D51C43CBF80040074D083D2C68DE
:102EE0009C434E68F60300D51C432C60521C102AEC
:102EF000FFF43EAFBDE8F88F083C01404438024083
:102F0000003001400000024000040240000802407E
:102F1000000C024000100240001402400018024061
:102F2000001C02400069084201D0012070470020C7
:102F30007047002A01D081617047090481617047A0
:102F40000148806870470000A000002070B504466A
:102F5000002C04D094F83D00002510B106E00120BB
:102F600070BD84F83C50204600F0A4FA242084F878
:102F70003D002068016821F00101016020680168BE
:102F800041F4004101602068016821F400410160C2
:102F900001F048FA4F4B6168994203D84E49884284
:102FA00003D304E04D49884201D2012070BD4C4951
:102FB000B0FBF1F12268566826F03F060E435660DA
:102FC00062689A4201D8491C07E04FF49672514357
:102FD0004FF47A72B1FBF2F1491C2268166A26F0AE
:102FE0003F06314311626168994210D84900401E82
:102FF000B0FBF1F2521CC2F30B02042A01D20420EE
:1030000022E0B0FBF1F0401CC0F30B001CE0A26812
:10301000F2B301EBC10303EB0116431EB3FBF6F35E
:103020005B1C43F480431B0549D092B301EBC10202
:1030300002EB0111401EB0FBF1F0401CC0F30B008D
:1030400040F4804040F400402168CA694CF6FF73A8
:103050009A431043C861D4E907100143206802680D
:1030600022F0C00211430160D4E90301014320684A
:10307000826848F2FF339A4311438160D4E9051016
:1030800001432068C26822F0FF021143C16001E0E1
:103090000EE016E02068016841F00101016025643E
:1030A000202084F83D00256384F83E50002070BD48
:1030B00001EB4106431EB3FBF6F35B1CB3E70120B3
:1030C000C2E701EB4101401EB0FBF1F0401CC0F330
:1030D0000B00B7E7A086010080841E0000093D00B8
:1030E00040420F002DE9FF4F83B00446DDE91198FF
:1030F0008A469346109FFFF723FF054694F83D004C
:10310000202803D0022007B0BDE8F08F1923012248
:1031100094492046009502F0C6FC08B10220F2E76F
:1031200094F83C00012807D0012084F83C00206876
:103130000168C90702D005E00220E4E7016841F018
:10314000010101602068016821F400610160222012
:1031500084F83D00402084F83E0000262664676223
:10316000A4F82A90608D20857F48E062CDE9008533
:103170005A4651462046069B02F06CFB08B10120DE
:10318000C1E7208D48B1012810D002281CD020684A
:10319000416980690290754FD8E020684169816972
:1031A0000291016841F400710160F4E72068016850
:1031B00021F48061016020684169816902910168A0
:1031C00041F400710160E6E72068016821F4806144
:1031D00001602068016841F4006101602068416974
:1031E00080690290D7E703287ED801280BD00228F7
:1031F0001FD04346002239462046009502F053FC7A
:10320000F0B301207FE72A464146204602F0DCFC6D
:1032100008B1012077E720680069616A0870606A78
:10322000401C6062208D401E2085608D401E6085A0
:103230008CE04346002239462046009502F033FCDC
:1032400008B101205FE72068016841F40071016066
:1032500020680069616A0870606A401C6062218DA4
:10326000491E2185618D491E6185216809690170AA
:10327000606A401C6062208D401E2085608D00E0E9
:1032800002E0401E608561E02068016821F48061F1
:10329000016020680069616A0870606A401C6062B1
:1032A000208D401E2085608D401E60854346002293
:1032B00039462046009502F0F6FB08B1012022E7CE
:1032C0002068016841F40071016020680069616A4A
:1032D0000870606A401C6062218D491E2185618DE5
:1032E000491E6185216800E00BE009690170606A90
:1032F000401C6062208D401E2085608D401E6085D0
:1033000024E02A464146204602F05EFC08B1012036
:10331000F9E620680069616A0870606A401C6062B2
:10332000218D491E2185618D491E618521684A696B
:10333000D24352070AD409690170606A401C606276
:10334000208D401E2085608D401E6085208D0028C8
:103350007FF449AF20203C346070A67026700020B6
:10336000D1E60000020010000000FFFF0400010091
:103370002DE9FF4F83B00446DDE911988A46934654
:10338000109DFFF7DDFD064694F83D00202803D090
:10339000022007B0BDE8F08F1923012243492046DF
:1033A000009602F080FB08B10220F2E794F83C009E
:1033B000012807D0012084F83C0020680168C90773
:1033C00002D005E00220E4E7016841F0010101605C
:1033D0002068016821F400610160212084F83D002B
:1033E000402084F83E00002727646562A4F82A90F4
:1033F000608D20852E48E062CDE900865A46514610
:103400002046069B02F0C6FA80B30120C1E732468F
:103410004146204602F00EFC48B1206C042804D13D
:103420002068016841F4007101600120B1E7606A21
:10343000216800780861656A6D1C6562208D401EF8
:1034400080B22085618D491E618523685969C94311
:1034500049070BD450B128781861606A401C60623B
:10346000208D401E2085608D401E6085208D0028A7
:10347000CDD132464146204602F0EEFA48B1206CEA
:10348000042804D12068016841F400710160012022
:103490007FE71F3454F81F0C016841F4007101608C
:1034A0002020A077E7776777002072E702001000FE
:1034B0000000FFFF2DE9F04786B00646142101A861
:1034C000FDF765F9534C524A3068002551490327EE
:1034D00010344FF012084FF001094FF0040A9042E7
:1034E0001FD1086840F002000860086800F0020080
:1034F000009038020190CDF80880CDF80C90049728
:10350000CDF814A001A94448FFF724FC206840F43A
:1035100000102060206800F40010009006B0BDE8A4
:10352000F0873E4A90423CD1086840F02000086095
:10353000086800F0200000900197CDF80880CDF8D1
:103540000C900497CDF814A001A93548FFF702FCB0
:10355000206840F480002060206800F48000009023
:10356000314C304820604FF0606060604020A060C7
:10357000E560000120616561A561E561C00120622F
:1035800065622046FFF712FB08B1FEF782FA74630A
:10359000A6632548A8380068416841F4006141608D
:1035A000BCE7224A9042B9D1086840F004000860A4
:1035B000086800F004000090086840F0010008600E
:1035C000086800F00100009050150190CDF80880C7
:1035D000CDF80C900497CDF814A001A91448FFF77A
:1035E000B9FB4FF480700190CDF80880CDF80C90B5
:1035F0000497CDF814A001A90E48FFF7ABFB206893
:1036000040F400002060206800F40000009085E78E
:10361000005400403038024000040240005800408E
:1036200000140240B8600240B00C0020005C004072
:1036300000080240000002400248816802781144FC
:1036400081607047A000002010B50B48016841F46C
:1036500000710160016841F480610160016841F41A
:1036600080710160032000F075F80F2000F006F86B
:1036700000F026F8002010BD003C024070B5044662
:103680000D4D4FF47A712878B1FBF0F00B490968C1
:10369000B1FBF0F001F0AAFB08B1012070BD102CC5
:1036A00007D200222146501E00F034F86C60002042
:1036B00070BD012070BD0000A0000020AC00002003
:1036C00082B00C48016841F480410160006800F458
:1036D000804001900748001F016841F0805101605F
:1036E000006800F08050019000220F21901E02B06F
:1036F00000F010B844380240002809DB00F01F0237
:10370000012191404009800000F1E020C0F8001143
:1037100070470000F0B40D460D4B1B68C3F3022345
:10372000C3F10704042C00D90424191D072901D270
:10373000002300E0DB1E012606FA04F1491E2940A1
:1037400099409E40761E16403143F0BC07F0D2BF30
:103750000CED00E000F00701054A10684FF6FF038A
:10376000184040EA012003490843106070470000F8
:103770000CED00E00000FA0570470068416200208F
:10378000704770B50368586A002907D09C6A00EB3F
:10379000144400204FF48275491E0AE040EA0240BA
:1037A00098620DE005EB80069E5904EB1644401C20
:1037B000C0B28842F6D305EB810144EA024058507A
:1037C000002070BDD0F8080506F0EDBD01EBC10288
:1037D00000EB8202D0F80805D26C06F011BD01EBB7
:1037E000C10200EB8202D0F80805D2F88C2206F064
:1037F00075BDD0F8080506F0D8BD0A0601F00F0126
:1038000001EBC10100EB810101D53C3101E001F583
:103810001F71006807F088BD70B504460B0601F003
:103820000F0000EBC00104EB81014FF001024FF0EB
:10383000000502D53C314A7002E001F51F714D7060
:10384000087094F8BC04012808D084F8BC242068CF
:1038500007F022FA84F8BC54002070BD022070BD2D
:1038600070B5044601F00F006268904201D9012052
:1038700070BD0B0601F00F0101EBC10104EB8101EA
:103880004FF001024FF0000502D53C314A7002E0D2
:1038900001F51F714D708D70087094F8BC040128FB
:1038A00008D084F8BC24206807F0EAFB84F8BC54F4
:1038B000002070BD022070BD01F00F0101EBC101BD
:1038C00000EB8100D0F89C0270472DE9F0410446DE
:1038D0000F0601F00F0000EBC00104EB81014FF077
:1038E00001064FF0000502D53C314E7002E001F5B3
:1038F0001F714D700870CA600B714A7802B108815F
:10390000022B00D14D7194F8BC04012809D084F831
:10391000BC64206807F00CF9284684F8BC54BDE864
:10392000F0810220FBE770B50D4605F00F0404EBB3
:10393000C40100EB810101F51F710A618B61002355
:103940000B624B700C700369012B00D14A612A078E
:1039500005D0027C006807F0EBFB002070BD027C04
:10396000006807F0D7FAF8E770B504460D466168BD
:1039700005F00F00884201D9012070BD29064FF0E3
:1039800000064FF0010206D500EBC00104EB8101F7
:103990003C314A7006E005EBC50104EB810101F5FD
:1039A0001F714E708A70087094F8BC04012807D00B
:1039B00084F8BC24206807F08FFB280702D007E0BA
:1039C000022070BD217C04F2C442206807F02EFB67
:1039D00084F8BC64002070BD70B50D4605F00F047E
:1039E00004EBC40100EB81013C310A618B610023CF
:1039F0000B6201234B700C700369012B00D14A61EB
:103A00002A0705D0027C006807F092FB002070BDF9
:103A1000027C006807F07EFAF8E72DE9F84F0446CB
:103A20002568284607F02EFD00287ED1206807F083
:103A300055FD002879D0D5F80808C0F30D20C4F84A
:103A4000FC04206807F04AFD800704D5206841691E
:103A500001F002014161206807F040FDC10604F257
:103A6000C440009035D52068816921F01001816142
:103A70002F6A07F00F0000EBC00004EB800606F58C
:103A80001F76C7F34340022802D0062812D01BE05D
:103A900047F6F070074217D0C7F30A1217462846B8
:103AA000316907F01FFD306938443061306A3844AD
:103AB000306209E008222846009907F013FD306AB9
:103AC000C7F30A11084430622068816941F010018F
:103AD0008161206807F002FD00034FF0080B4FF0F2
:103AE00000094FF001085ED50026206807F0D5FCDC
:103AF000824655E05FEACA704FD0F1B2206807F005
:103B0000E5FC0746F80707D005EB4610C0F8088B20
:103B10003146204603F040FB380709D505EB461037
:103B2000C0F808BB3146204600E0F9E103F010FB85
:103B3000F80604D505EB46111020C1F8080BB807AC
:103B40001CD56869000605D5D5F8040840F48061E5
:103B5000C5F8041806EBC60004EB800000F51F70E2
:103B6000C178012905D180F80390F1B2204600F018
:103B7000DDF905EB46110220C1F8080BB80604D5A3
:103B800005EB46102021C0F8081BB80405D505EB4D
:103B900046104FF40051C0F8081B761C4FEA5A0A31
:103BA000BAF1000FA6D1206807F098FC40036CD54D
:103BB000206807F06BFC8246002663E05FEACA706B
:103BC0005DD0F1B2206807F06FFC0746F80723D0FC
:103BD00006F00F0108FA01F0D5F834188143C5F852
:103BE000341805EB4610C0F80889206901280FD168
:103BF00006EBC60004EB8000D0E912211144C16439
:103C000036B9606D20B920680121009A07F00EFADC
:103C1000F1B22046FFF7DAFD380703D505EB461071
:103C2000C0F808B9F80604D505EB46111020C1F814
:103C30000809780604D505EB46104021C0F808199C
:103C4000B80716D53146284607F0E8FB06EBC60054
:103C500004EB80003C30C178012905D180F8039045
:103C6000F1B2204600F05EF905EB46110220C1F8E2
:103C70000809380603D53146204603F0FFFA761CC2
:103C80004FEA5A0ABAF1000F98D1206807F026FCD3
:103C9000002811DAD5F8040820F00101C5F804184D
:103CA00094F8F404012829D0204600F00EFA206888
:103CB000416901F000414161206807F00FFC0005F7
:103CC0000BD5D5F80808C00702D0204600F042FA0C
:103CD0002068416901F400614161206807F0FEFB42
:103CE000C00461D5D5F8040820F00101C5F8041816
:103CF0001021206807F092FB002120E084F8F49462
:103D000000212046FFF738FDD1E705EB411000F513
:103D100010604FF67F328260036823F40013036063
:103D2000C0F80822D0F8002222F40012C0F80022C5
:103D3000D0F8002242F00062C0F80022491C6068FE
:103D40008842E2D8D5F81C0840F00111C5F81C18CB
:103D5000206B60B1D5F8840840F00B01C5F88418D9
:103D6000D5F8440840F00B01C5F844180CE0D5F82C
:103D7000140842F22B010843C5F81408D5F81008BE
:103D800040F00B01C5F81018D5F8000820F4FE61CA
:103D9000C5F80018217C2068009A07F047F92068D0
:103DA000416901F480514161206807F097FB80046C
:103DB00015D5206806F0FEFE206807F053FBE06092
:103DC00000F02AFB0146227B206807F0F1FB204629
:103DD00000F064F92068416901F4005141612068F4
:103DE00007F07CFB000707D5204600F072F9206839
:103DF000416901F008014161206807F06FFB00068E
:103E000015D5A86920F08001A96101260CE006EB18
:103E1000C60004EB800090F87F02012803D1F1B2C4
:103E20002046FFF7EAFC761C6068B042EFD82068B5
:103E300007F054FBC00220D5012616E005EB461022
:103E4000D0F8001906EBC60004EB800090F8402083
:103E5000012A09D1002907DA80F83F80F0B240F04A
:103E600080012046FFF7C9FC761C6068B042E5D8A7
:103E70002068416901F480114161206807F02EFB40
:103E8000800230D5012026E005EB4011D1F8001B5F
:103E900000EBC00204EB820292F88032012B19D1B0
:103EA000002917DA94F8FC3401F4803103F001039F
:103EB00099420FD182F87F82A96941F08002AA61FC
:103EC0006969090606D4D5F8040840F40070C5F8FD
:103ED000040803E0401C61688142D5D8206841692C
:103EE00001F400114161206807F0F8FA400007D59D
:103EF0002046FFF767FC2068416901F0804141617D
:103F0000206807F0EBFA40070AD520684568680783
:103F100002D52046FFF76DFC2068416829434160C7
:103F2000BDE8F88FD0F8080506F094BAD0F8080577
:103F300006F0A5BA2DE9F0418AB00446002C05D060
:103F4000266894F8BD04002520B108E001200AB0DD
:103F5000BDE8F08184F8BC54204600F05DF80320F1
:103F600084F8BD04F06BC00500D42561206806F01C
:103F7000CBFF04F11001282288466846FCF7ABFB12
:103F800094E80F0006F024FE022718B184F8BD74EF
:103F90000120DCE70021206807F0C3FA0021012698
:103FA0000DE001EBC10004EB80003C304670017075
:103FB00001810571C56005618561491CC9B26068F0
:103FC0008842EED800210DE001EBC10004EB800037
:103FD00000F51F70457001700571C5600561856150
:103FE000491CC9B260688842EED82822414668461A
:103FF000FCF771FB94E80F0006F0CEFE18B184F8D0
:10400000BD740120A3E784F8385084F8BD642068AB
:1040100006F0B4FE00209AE710B586B004461421DD
:1040200001A8FCF7B4FB2068B0F1A04F2FD100210C
:104030001848026842F001020260006800F00100C6
:1040400000904FF4C0500190022002900391032091
:1040500004900A20059001A90F48FEF77BFE0D4849
:10406000001D016841F0800101600A4814300168B8
:1040700041F480410160006800F48040009000221B
:1040800005214320FFF746FB4320FFF735FB06B031
:1040900010BD0000303802400000024070B50446F8
:1040A0000125E06800280ED0022801D0FDF7F1FCC0
:1040B0002946D4F8080506F053FAD4F80805BDE8F7
:1040C000704006F006BA0025F2E7D0F8080506F0C1
:1040D00030BAD0F8080506F036BA10B5044694F8A0
:1040E000BC0401280BD0012084F8BC0484F83810EB
:1040F000206807F046FA002084F8BC0410BD0220B6
:1041000010BDD0F8082500F2C441104606F034BABC
:1041100010B50446206894F8BC14012906D001218A
:1041200084F8BC14A16A012902D008E0022010BD65
:10413000A169012903D0816B41F48031816320683A
:1041400007F044F9206806F00BFE002084F8BC0458
:1041500010BD000010B50446D4F8080506F04EFA6C
:104160002068D0F8001E41F00101C0F8001E206A4E
:10417000002804D00248016841F00601016010BD2A
:1041800010ED00E02DE9F84304464FF001082068E7
:104190004FF00007C10701D140072BD5DFF8189178
:1041A000C9F86870FEF7CCFE0646444D07E0FEF7FE
:1041B000C7FE801B022802D90320BDE8F8832868C7
:1041C0000001F4D46068217A800140EA01703B4923
:1041D00084310860C9F86880FEF7B2FE064606E042
:1041E000FEF7AEFE801B022801D90320E5E7286810
:1041F0000001F5D52078800753D53048403001685C
:1042000041F080510160006800F0805000902C4D1A
:10421000286840F480702860FEF792FE064606E0AB
:10422000FEF78EFE801B022801D90320C5E728680F
:10423000C005F5D5214D7035286800F44070F8B1FF
:10424000A18901F4407181421AD0286820F440709D
:104250001C49C1F800800F6028602868C0070FD093
:10426000FEF76EFE064641F2883706E0FEF768FE6E
:10427000801BB84201D903209FE728688007F5D545
:10428000E0680E49C0F301220831032A0BD0086808
:1042900020F4F81008602868A189C1F30B010843D5
:1042A0002860002089E70A68074B22F4F8121840BA
:1042B00002430A60EFE70000000047420038024076
:1042C00000700040400E4742FFFCFF0F2DE9F04711
:1042D00004460D46002C13D0DFF82891D9F80000D1
:1042E000EFB200F00700A8420CD289F80070D9F8AC
:1042F000000000F00700A84204D00120BDE8F087CC
:104300000120FBE72068404E810712D5400703D506
:10431000306840F4E05030602078000703D5306802
:1043200040F4604030603068A16820F0F00008433D
:1043300030602078C00731D03349606808390128DF
:1043400008D002280BD0032809D0096889070BD4AC
:104350000120D3E70968890306D40120CEE7096864
:10436000890101D40120C9E7316821F0030101432B
:104370003160FEF7E5FD804641F2883A07E0FEF73E
:10438000DFFDA0EB0800504501D90320B6E73068F7
:10439000616800F00C00B0EB810FF0D1D9F800009B
:1043A00000F00700A84209D989F80070D9F8000088
:1043B00000F00700A84201D001209FE720784007C5
:1043C00005D53068E16820F4E0500843306020787B
:1043D000000706D53068216920F4604040EAC1003A
:1043E000306000F03FF83168084AC1F30311515CB6
:1043F000C8400749086007480068FFF73FF90020F8
:104400007CE70000003C02400838024018440108E4
:10441000AC000020A40000200148006870470000A4
:10442000AC00002000B5FFF7F7FF04490968044A13
:10443000C1F38221515CC84000BD00000838024031
:104440002844010800B5FFF7E7FF04490968044A5A
:10445000C1F34231515CC84000BD00000838024041
:104460002844010810B51748006810F00C011648E0
:1044700016D0164B042912D0082911D1114C241F33
:10448000216801F03F02216849020AD52068C0F383
:104490008810A0FB03010023FCF742F809E018464E
:1044A00010BD21680023C1F38811A1FB0001FCF7B6
:1044B00037F82168C1F30141491C4900B0FBF1F014
:1044C00010BD0000083802400024F400001BB700B3
:1044D0002DE9F84F0446002C13D02078DFF8A08394
:1044E000C007A8F1040556D008F104000168C1F323
:1044F000810101290CD00068C0F38100022803D09B
:104500000DE00120BDE8F88FD8F80000400206D584
:10451000286880033FD5606870BB0120F2E76068BF
:10452000B0F5803F10D0B0F5A02F12D0286820F44D
:1045300080302860286820F4802028606068E0B11E
:10454000FEF7FEFC064614E0286840F48030286040
:10455000F4E7286840F480202860286840F4803020
:104560002860EBE7FEF7ECFC801B642801D90320F0
:10457000C8E728688003F5D50DE0FEF7E1FC0646A4
:1045800006E0FEF7DDFC801B642801D90320B9E7B3
:1045900028688003F5D42078BA4F80074FF00009CF
:1045A00048D5B748001D016811F00C0F08D000680D
:1045B000C0F38100022813D1D8F8000040020FD4C4
:1045C0002868800704D5E068012801D0012099E718
:1045D0002868216920F0F80040EAC100286029E03D
:1045E000E068B8B101203860FEF7AAFC064606E094
:1045F000FEF7A6FC801B022801D9032082E7286869
:104600008007F5D52868216920F0F80040EAC1004C
:1046100028600FE0C7F80090FEF792FC064606E01F
:10462000FEF78EFC801B022801D903206AE7286868
:104630008007F5D42078000729D5DFF844A29248F6
:1046400061690AF1700A89B101210160FEF778FC05
:10465000064606E0FEF774FC801B022801D9032001
:1046600050E7DAF800008007F4D510E0C0F80090B9
:10467000FEF766FC064606E0FEF762FC801B022899
:1046800001D903203EE7DAF800008007F4D420784F
:10469000400778D54FF0000A79483C300068C000E8
:1046A0000BD477483C30016841F0805101600068CC
:1046B00000F0805000904FF0010ADFF8D0B1DBF835
:1046C0000000C00514D4DBF8000040F48070CBF883
:1046D0000000FEF735FC064606E0FEF731FC801BC5
:1046E000022801D903200DE7DBF80000C005F4D54E
:1046F000634EA0686C3601280FD0052812D03068B0
:1047000020F001003060306820F004003060A068C4
:10471000F8B1FEF715FC834617E0306840F0010061
:104720003060F4E7306840F004003060306840F0FA
:1047300001003060EBE7FEF703FCA0EB0B0141F258
:104740008830814201D90320DCE630688007F2D549
:1047500010E0FEF7F5FB834609E0FEF7F1FBA0EB66
:104760000B0141F28830814201D90320CAE630684A
:104770008007F2D4BAF1010F05D141483C300168FD
:1047800021F080510160A069C0B33D49091D09684D
:104790004FF0FF36C1F38101022946D0022805D02F
:1047A000C7F86090FEF7CCFB04463AE0C7F860908B
:1047B000FEF7C6FB814607E0FEF7C2FBA0EB09004F
:1047C000022801D903209DE628688001F4D4D4E9A9
:1047D00007010843616AA26A890106EB520241EAB5
:1047E0000241084394F82C1040EA0160C8F8000028
:1047F00001203866FEF7A4FB044607E03DE0FEF723
:104800009FFB001B022801D903207BE6286880015A
:10481000F5D532E0FEF794FB001B022801D90320F6
:1048200070E628688001F5D427E0012823D0D8F865
:104830000000E26900F4800191421AD1226A00F07E
:104840003F01914215D147F6C071626A0140B1EB58
:10485000821F0ED1A26A00F4403106EB5202B1EB86
:10486000024F06D194F82C1000F07060B0EB016F8D
:1048700003D0012046E6012044E6002042E6000085
:104880000438024000004742800E4742007000405A
:1048900070B50446002C03D06079002510B105E006
:1048A000012070BD2571204600F00CF802206071D7
:1048B0002068016841F00401016001206071A56079
:1048C000002070BD08B500680649884208D1064836
:1048D000016841F040010160006800F04000009074
:1048E00008BD0000000806503438024010B50446E8
:1048F000002C02D0607F10B106E0012010BD002026
:104900002077204600F03AF8022060772168CA201C
:104910004862216853204862204602F059FEC8B917
:1049200020688168144A114081602068816862684B
:104930001143D4E904231A43114381602168E068DC
:10494000086120680169228941EA0241016120462B
:1049500002F061FE58B921680A6C22F480220A64D0
:1049600021680A6CA3691A430A64012161772268ED
:10497000FF21516210BD0000BFFF8FFF1FB5002156
:1049800000910191029103910068084988420CD17D
:1049900002200090064803906846FFF7F3FB08B139
:1049A000FDF777F80349012008601FBD002800408B
:1049B00000031E003C0E474270B505462868C168DA
:1049C00021F0A001C160FEF7BBFA04464FF47A76ED
:1049D00006E0FEF7B5FA001BB04201D9032070BD16
:1049E0002868C0688006F4D5002070BD70B5044604
:1049F000002C09D0606A002540B125616561A5627F
:104A000094F8510040B10CE0012070BD6068B0F531
:104A1000827FF4D0E561F2E784F85050204600F040
:104A200045F8022084F851002068016821F0400117
:104A30000160A088218900F4827001F404410843D8
:104A4000A18901F400610843217C01F002010843BF
:104A5000217D01F001010843218B01F4007108431D
:104A6000217F01F03801084394F8201001F0800103
:104A70000843218D01F40051084321680860A069B2
:104A8000042101EA104094F8241001F010010843B9
:104A9000216848602068C16921F40061C1616565D1
:104AA000012084F85100002070BD00002DE9F04382
:104AB00087B00546142102A8FBF769FE4B4B296815
:104AC0004B48022401274B4A00264FF003084FF0C1
:104AD0000509994267D1464914310B6843F4805364
:104AE0000B60096801F480510191016841F00201F5
:104AF0000160016801F002010191016841F00101CA
:104B00000160006800F001000190182002900394F9
:104B10000497CDF81480CDF8189002A91046FEF73E
:104B200019F98020029003940497CDF81480CDF8F1
:104B3000189002A93048FEF70DF9314C2F4820603B
:104B40004FF0C068C4F80480A660E66007152761CE
:104B50006661A661E6614FF44030206266622046DD
:104B6000FEF724F808B1FCF794FFEC64A563234832
:104B7000234C183060342060C4F804804020A060CA
:104B8000E66027616661A661E661C0022062666236
:104B90002046FEF70BF808B1FCF77BFFAC64A56379
:104BA00007B0BDE8F083174B9942F9D11049103195
:104BB0000B6843F480430B60096801F48041019164
:104BC000016841F002010160006800F002000190FC
:104BD0004FF46040029003940497CDF81480CDF810
:104BE000189002A91046FEF7B5F8D9E70030014049
:104BF000303802400004024000000240406402409D
:104C0000F00D0020003800402DE9F84F04460A9EC0
:104C10008A4693461F4601254FF0000894F850003D
:104C200001280ED0012084F85000FEF789F9814652
:104C300094F85100616801280DD0B1F5827F07D149
:104C400002E00220BDE8F88FA16809B9042802D06B
:104C50004FF00208C3E0BAF1000F28D0BBF1000FFB
:104C600025D0380023D094F85100042802D0052024
:104C700084F8510000206065C4F838B0E787A78742
:104C8000C4F830A0E786A7862064606420680168C5
:104C9000490603D4016841F040010160E068B0F5C5
:104CA000006F07D06068E8B3012F48D07DE04FF077
:104CB000010894E0606808B1012F39D1206B2168A8
:104CC0000088C860206B801C2063E08E401EE08658
:104CD0002EE02068816889070DD5E18E59B1012D3C
:104CE00009D1216B0988C160206B801C2063E08E94
:104CF000401EE086002520688168C9070BD0E18F3F
:104D000049B1C068A16B0880A06B801CA063E08FD4
:104D1000401EE0870125FEF713F9A0EB0900B04221
:104D200006D300E00BE0701C02D04FF0030856E001
:104D3000E08E0028CDD1E08F0028CAD13BE0206B67
:104D4000216800780873206B401C2063E08E401EB1
:104D5000E0862AE02068816889070DD5E18E59B187
:104D6000012D09D1216B09780173206B401C206350
:104D7000E08E401EE086002520688168C9070BD0C0
:104D8000E18F49B1C068A16B0870A06B401CA063A3
:104D9000E08F401EE0870125FEF7D2F8A0EB090066
:104DA000B04201D3701C11D186B1E08E0028D1D160
:104DB000E08F0028CED14A463146204604F0ECF878
:104DC00038B14FF001082020606508E04FF003087B
:104DD00005E0A06818B92068C168806800900120CB
:104DE000503460700020207040462BE710B5401E04
:104DF000B0F1807F01D3012010BD4FF0E02460614D
:104E00000F21601706F076FC0020A06107202061CA
:104E1000002010BD10B590F83C20012A22D00122BC
:104E200080F83C20CA6800238C6822F44072224338
:104E30004C6822F4806222430C6822F40062224310
:104E40000C6922F4805222434C6922F4005222431E
:104E5000C96922F480420A4301684A6480F83C3000
:104E6000002010BD022010BD70B590F83C20012A32
:104E700031D0012680F83C60022280F83D20026893
:104E80005468936824F070050C682C435460134CEC
:104E90000268A24214D0B2F1804F11D0104CA2424D
:104EA0000ED0104CA2420BD00F4CA24208D00F4C97
:104EB000A24205D00E4CA24202D00E4CA24204D116
:104EC00023F080034968194391603C30467000210B
:104ED0000170002070BD022070BD00000000014084
:104EE0000004004000080040000C004000040140A5
:104EF000004001400018004010B50446002C03D0CB
:104F000094F83D0010B107E0012010BD002084F8A6
:104F10003C00204600F016F8022084F83D00211DD8
:104F2000206804F04BF901203D3460726070A0707D
:104F3000E07020716071A071E0712072207000201B
:104F400010BD000008B500682549264A884208D1EE
:104F5000106840F001001060106800F0010000903F
:104F600008BD2049204B091F984208D1086840F02D
:104F700002000860086800F00200009008BD1B4BAA
:104F8000984208D1086840F004000860086800F002
:104F90000400009008BD164B984208D1086840F004
:104FA00008000860086800F00800009008BD11497A
:104FB000884208D1106840F002001060106800F0CC
:104FC0000200009008BD0C498842FBD1106840F4F3
:104FD00000301060106800F40030009008BD000040
:104FE0000000014044380240000400400008004036
:104FF000000C0040000401400044014090F83D10C6
:10500000012901D001207047022180F83D1000687D
:105010001349884214D0B0F1804F11D01149884211
:105020000ED0114988420BD01049884208D010494F
:10503000884205D00F49884202D00F49884209D1E1
:10504000816801F00701062908D0016841F00101DB
:10505000016003E0016841F0010101600020704738
:10506000000001400004004000080040000C004027
:1050700000040140004001400018004070B50446A3
:10508000002594F83C00012817D0012684F83C60E4
:10509000022084F83D002068826822F0770222F422
:1050A0007F4282600868502838D00DDC202853D019
:1050B00005DC90B3102811D14EE0022070BD3028DD
:1050C0004AD040280AD13DE0602831D070280CD069
:1050D000B0F5805F03D0B0F5005F12D001253C34FD
:1050E000667000202070284670BDCB68D1E9012190
:1050F000206804F0D6F82068816841F0770181606B
:10510000EDE7CB68D1E90121206804F0CAF82068F6
:10511000816841F480418160E1E71DE0CA68496827
:10512000206804F0A1F95021206804F0C4F8D6E703
:10513000CA684968206804F0A8F96021206804F072
:10514000BAF8CCE7CA684968206804F08DF94021B4
:10515000206804F0B0F8C2E722680146104604F067
:10516000AAF8BCE72DE9F04186B00446142101A855
:10517000FBF70DFB75482168754A02240125814221
:1051800028D1106840F010001060106800F0100086
:1051900000904FF4D4400190029403950494059537
:1051A00001A96C48FDF7D6FD6B48FFF727FF0021EA
:1051B000694800F07BF90421674800F077F908217D
:1051C000654800F073F90C21634800F06FF906B0F0
:1051D000BDE8F0816148DFF8888181421BD1106809
:1051E00040F004001060106800F004000090881582
:1051F0000190029403950494059401A94046FDF79B
:10520000A9FD55484830FFF7F9FE534808214830BA
:1052100000F04CF9DBE75348032681421BD11068AC
:1052200040F008001060106800F0080000900814BA
:105230000190029403950496059401A94A48FDF74C
:1052400089FD45489030FFF7D9FE4348082190304A
:1052500000F02CF9BBE74548814226D1106840F0A8
:1052600080001060106800F0800000904FF4E05063
:105270000190029403950494059401A93C48FDF71C
:1052800069FD3548D830FFF7B9FE33480021D830E2
:1052900000F00CF930480421D83000F007F92E480E
:1052A0000821D83000F002F991E7324840278142C6
:1052B0002DD1106840F480701060106800F4807088
:1052C0000090106840F004001060106800F00400C6
:1052D00000900197029403950494059601A926482D
:1052E000FDF738FD0197029403950494059601A9F2
:1052F0004046FDF72FFD2148FFF780FE00211F48A3
:1053000000F0D4F804211D4800F0D0F85FE71C48F5
:1053100081429FD1106840F020001060106800F0BA
:10532000200000900197029403950494059601A92A
:105330001448FDF70FFD11484830FFF75FFE0F4896
:105340000021483000F0B2F841E7000000000140C1
:105350003038024000100240B00E0020000400402F
:105360000008024000080040000C0240000C004011
:10537000001C02400004014000200240D00F002029
:10538000004401400014024070B504460D4600265A
:1053900094F83C0001280FD0012084F83C006AB149
:1053A000042A1FD0082A32D00C2A44D0012600201B
:1053B00084F83C00304670BD022070BD294620684C
:1053C00003F082FF2068816941F008018161206853
:1053D000816921F004018161206881692A69114392
:1053E0008161E4E72946206803F0A2FF2068816913
:1053F00041F4006181612068816921F480618161EB
:10540000206881692A6941EA02218161CFE7294642
:10541000206803F0C7FF2068C16941F00801C1613D
:105420002068C16921F00401C1612068C1692A694D
:105430001143C161BBE72946206803F0EBFF2068F8
:10544000C16941F40061C1612068C16921F48061D2
:10545000C1612068C1692A6941EA0221C161A6E7E8
:1054600010B50446002C03D094F83D0010B107E0BD
:10547000012010BD002084F83C00204600F015F803
:10548000022084F83D00211D206803F097FE0120D2
:105490003D3460726070A070E07020716071A07126
:1054A000E07120722070002010BD704710B50446D6
:1054B000002909D004290AD008290BD094F841000A
:1054C00001280AD0012010BD94F83E00F8E794F8B6
:1054D0003F00F5E794F84000F2E70220A9B3042961
:1054E00037D0082938D084F841000122206803F021
:1054F000CBFE1E4920681E4A884201D0904203D14B
:10550000436C43F4004343642068884213D0B0F1F5
:10551000804F10D0174988420DD0174988420AD0D1
:105520001649884207D0904205D01549884202D0DA
:105530001449884213D1816801F00701062912D06D
:10554000016841F0010101600DE0FFE784F83E00D1
:10555000CBE784F83F00C8E784F84000C5E701685E
:1055600041F001010160002010BD00000000014079
:10557000000401400004004000080040000C00400E
:10558000004001400018004070B50446002C04D0D3
:1055900094F83D00002510B106E0012070BD84F8AC
:1055A0003C50204600F022F8242084F83D0020687A
:1055B000C16821F40051C160204603F079FF2068E2
:1055C000016921F4904101612068416921F02A01BB
:1055D00041612068C16841F40051C1602564202008
:1055E00084F83D0084F83E00002070BD2DE9F04FA6
:1055F00087B00446142102A8FBF7C9F87E49DFF8FA
:10560000F4C1143923687C4A0227072000250E15AF
:105610004FF003084FF000694FF0400A634549D14D
:10562000136843F010031360126802F01002019235
:105630000A6842F002020A600A6802F0020201925D
:105640000A6842F001020A60096801F00101019153
:105650008021029103970495CDF81480834606902B
:1056600002A96648FDF776FB701002900397049537
:10567000CDF81480CDF818B002A96148FDF76AFB97
:10568000614F60483860C7F80490C7F808A0FD6013
:105690003E617D61BD61FD61B00138627D62384669
:1056A000FDF784FA08B1FCF7F4F96763BC6307B04F
:1056B000BDE8F08FDFF854C14FF4003B63453DD1A6
:1056C0004D4A121F136843F480231360126802F4DA
:1056D000802201920A6842F004020A60096801F01F
:1056E000040101914FF44061029103970495CDF8B4
:1056F0001480069002A94648FDF72CFB424F45480E
:1057000060373860C7F80490BD60FD603E617D6120
:10571000BD61FD61C7F820B07D623846FDF746FAED
:1057200008B1FCF7B6F9A763BC6300220421272067
:10573000FDF7F0FF2720FDF7DFFFB8E7364883428B
:10574000B5D1106840F020001060106800F0200013
:105750000190086840F040000860086800F04000D0
:1057600001904FF48440029003970495CDF8148083
:105770000820069002A92948FDF7ECFA2148224F9B
:105780009038C03738604FF02068C7F80480BD609B
:10579000FD603E617D61BD61FD61C7F820B07D6245
:1057A0003846FDF703FA08B1FCF773F9A763BC6349
:1057B00014481B4F18383860C7F80480C7F808A091
:1057C000FD603E617D61BD61FD614FF480303862F6
:1057D0007D623846FDF7EAF908B1FCF75AF96763CC
:1057E000BC63002205214720FDF794FF4720FDF709
:1057F00083FF5CE70010014044380240000402408F
:1058000000000240B86402402C1100200048004013
:1058100000080240286002400014014000180240C5
:105820004C120020FEE701684A69D24352050FD4AA
:105830006FF480624A61002140F8301F20224273D9
:105840008173026942F00402026101730120704712
:10585000002070472DE9F84F04460B9E0F469046F6
:105860001D462068016841F480610160206801687C
:1058700041F48071016000964FF0011A00225146F8
:1058800020460A9B00F00FF94FF4007940B12068E0
:105890000068C00501D5C4F840900320BDE8F88F2A
:1058A000216807F0FE000861DFF8E4B0334659468E
:1058B00020460A9A00F034F908B10120EEE720688A
:1058C000416980690090324620460A9900F0B2F999
:1058D00048B1206C042804D12068016841F40071AB
:1058E00001600120DAE7284608F0FF0501280DD005
:1058F00021684FEA18200861324620460A9900F0D4
:1059000099F968B1206C042803D007E0206805618C
:1059100008E02068016841F4007101600120BDE7E2
:1059200020680561324620460A9900F083F948B1A3
:10593000206C042804D12068016841F400710160E2
:105940000120ABE72068016841F480710160009696
:105950000022514620460A9B00F0A5F838B1206885
:105960000068C00501D5C4F84090032096E721687F
:10597000F8B240F0010008613346594620460A9AC1
:1059800000F0CEF808B1012088E7002086E700008B
:10599000020001002DE9F8430446DDE908970D46B1
:1059A000164698462068016841F4807101604B46B4
:1059B00000224FF001112046009700F074F848B122
:1059C00020680068C00502D54FF4007020640320F1
:1059D000BDE8F883216805F0FE0008613B464A46B1
:1059E0001C49204600F09CF808B10120F0E720682F
:1059F0004169806900903A464946204600F01AF90C
:105A000048B1206C042804D12068016841F4007179
:105A100001600120DCE7F5B2B8F1010F0CD021687C
:105A2000300A08613A464946204600F003F968B159
:105A3000206C042803D007E02068056108E0206896
:105A4000016841F4007101600120C1E7206805612F
:105A50000020BDE70200010070B504460D46164661
:105A60000DE02046FFF7DFFE08B1012070BD681C85
:105A700005D0FDF765FA801BA84207D835B120682C
:105A80004069C0434007ECD4002070BD002044F8BA
:105A9000300F20216173A073216941F02001216141
:105AA0002073012070BD2DE9F0470446DDF82090F9
:105AB0000E4690461D46C6F3074708E0681C06D010
:105AC000FDF73EFAA0EB0900A8420FD875B1012FEF
:105AD00019D02068806926EA00000004000C1DD05F
